:020000040800F2
:10000000180B0020AD0200084F540008E71E00083E
:100010004D54000809080008015B000800000000BA
:10002000000000000000000000000000595500081A
:100030000B0800080000000071540008E15500089A
:10004000C7020008C7020008C7020008C70200086C
:10005000C7020008C7020008C7020008C70200085C
:10006000C7020008C7020008C7020008C70200084C
:10007000C7020008C7020008C7020008C70200083C
:10008000C7020008C7020008C7020008C70200082C
:10009000C7020008C7020008C7020008C70200081C
:1000A000C7020008C7020008C7020008C70200080C
:1000B000C7020008C702000839560008C702000836
:1000C000C7020008C7020008C7020008C7020008EC
:1000D000C7020008955A0008C7020008C7020008B6
:1000E000C7020008C7020008C7020008C7020008CC
:1000F000C7020008C7020008C7020008C7020008BC
:10010000C7020008C7020008C7020008C7020008AB
:10011000C7020008C7020008C7020008C70200089B
:10012000C7020008C7020008C7020008C70200088B
:10013000C7020008C7020008C7020008C70200087B
:10014000C7020008C7020008C7020008C70200086B
:10015000C7020008C7020008C7020008C70200085B
:10016000C7020008C7020008C7020008C70200084B
:10017000C7020008C7020008C7020008000000000C
:10018000C7020008C7020008C7020008C70200082B
:10019000C7020008C7020008C7020008C70200081B
:1001A000C7020008C7020008C702000800F002F8F2
:1001B00000F06DF80AA090E8000C82448344AAF194
:1001C0000107DA4501D100F062F8AFF2090EBAE892
:1001D0000F0013F0010F18BFFB1A43F0010318477B
:1001E00050B8000070B800000A444FF0000C10F83E
:1001F000013B13F0070408BF10F8014B1D1108BFA5
:1002000010F8015B641E05D010F8016B641E01F844
:10021000016BF9D113F0080F1EBF10F8014BAD1C94
:100220000C1B09D16D1E58BF01F801CBFAD505E0B2
:1002300014F8016B01F8016B6D1EF9D59142D6D30C
:10024000704700000023002400250026103A28BF34
:1002500078C1FBD8520728BF30C148BF0B60704738
:10026000642900F0A180752900F09E80782900F0B3
:10027000D780632900F05D82732900F0628200203C
:1002800070471FB506F0D8FD1FBD10B510BD00F0BA
:100290008BFA1146FFF7F5FF05F07EFC00F0A9FA96
:1002A00003B4FFF7F2FF03BC05F032FC09488047B6
:1002B00009480047FEE7FEE7FEE7FEE7FEE7FEE748
:1002C000FEE7FEE7FEE7FEE704480549054A064B60
:1002D00070470000E5550008AD0100081805002032
:1002E000180B002018070020180700207047000096
:1002F0000FB4044910B503AA029800F027FA10BC05
:100300005DF814FB2000002070B504468569006884
:10031000C10601D5302600E02026C00707D070BDF9
:10032000D4E9012130469047206A401C20626D1EAE
:10033000F6D570BD70B5044685690078C00707D151
:1003400070BDD4E9012120209047206A401C206222
:100350006D1EF6D570BD70B50C460546012A05D058
:100360002878800600D5EA69002302E0012305E031
:100370005B1C934202D2E05C0028F9D1A869E61820
:10038000C01AA861286A184428622846FFF7BCFFF3
:1003900004E0D5E9012114F8010B9047B442F8D3E9
:1003A0002846FFF7C7FF70BD2DE9F041064600243F
:1003B00010687529314616A510D0AFF300800028CB
:1003C00002DA404213A507E031688A0701D512A579
:1003D00002E0490704D511A5012401E0AFF3008034
:1003E00000210A2206F1240709E0B0FBF2FCB0FB71
:1003F000F2F302FB1C00303078541846491C0028E8
:10040000F3D123462A463046BDE8F04100F02EB92C
:10041000000000002D0000002B0000002000000064
:1004200070B504460D4621461068AFF30080218860
:10043000090502D50F4A7A4402E00E4A7A440E3288
:10044000002104F1240305E000F00F060009965D89
:100450005E54491C0028F7D120780023000704D5FA
:10046000702D02D009B1022311322046BDE8704040
:1004700000F0FCB858B100002DE9F05F8946044651
:100480004FF0000ADFF874B1FB44C0F820A020460A
:10049000E1688847002874D0252806D0D4E90121D6
:1004A0009047206A401C2062F1E700265F46204604
:1004B000E16888472028054607DB312D05D27819E9
:1004C00010F8200C08B10643F1E7B00701D526F07B
:1004D0000406C4F81CA00027C4F818A02A2D09D0CF
:1004E000284605F00EFB38B304EB8708303DC8F80A
:1004F000185019E059F8041B204604EB870291615B
:10050000E1688847012F054618D1E069002820DA04
:1005100026F020061DE0D8F8180000EB800005EB5F
:1005200040003038C8F818002046E1688847054682
:1005300005F0E7FA0028EED1012F0AD02E2D08D1C0
:100540002046E16888477F1C0546022F46F02006BA
:10055000C4DBA069002803DA404246F00106A0612E
:10056000F00701D026F010066C2D0BD0682D09D0B5
:100570004C2D39D06A2D35D0742D35D07A2D33D00D
:1005800016E038E0E1682F4620468847B842054625
:1005900009D16C2F26D04FF48060E16806432046D5
:1005A0008847054604E06C2F1AD04FF4807006434C
:1005B0000DB3A5F14100192802D8203546F4006694
:1005C0004A462946204626604E46FFF749FE80B13E
:1005D00001280BD0F61D26F0070000F1080956E7A8
:1005E0004020E4E78020D8E70020D6E706F10409A0
:1005F0004DE7284652E7206ABDE8F09F2EB1000083
:1006000010B5203AC0F00B80B1E81850203AA0E8AD
:100610001850B1E81850A0E81850BFF4F5AF5FEAE1
:10062000027C24BFB1E81850A0E8185044BF18C994
:1006300018C0BDE810405FEA827C24BF51F8043B3B
:1006400040F8043B08BF7047D20728BF31F8023B8F
:1006500048BF11F8012B28BF20F8023B48BF00F823
:10066000012B704770477047704770472DE9F0477E
:100670000D4699469246044600F124080168880612
:1006800004D5E06921F01001216000E00120A842BA
:1006900001DD471B00E00027A1697A1902EB090080
:1006A000081AA0612078C00602D42046FFF72CFE6D
:1006B000002608E0D4E901211AF806009047206AD4
:1006C000401C761C20624E45F4DB2078C0060AD51B
:1006D0002046FFF719FE06E0D4E9012130209047BB
:1006E000206A401C2062381EA7F10107F4DC07E0F5
:1006F000D4E9012118F805009047206A401C2062C7
:10070000281EA5F10105F3DC2046FFF713FE207833
:10071000000602D50220BDE8F0870120FBE710B5F6
:10072000436913B1AFF3008001E0FFF714FE01202D
:1007300010BD127800F124010A7000224A700122D3
:10074000EDE711684FF0FF32E9E70000074B70B5A5
:100750000D467B4400F011F80446284600F020F8CE
:1007600010B14FF0FF3070BD204670BD2354000023
:1007700001694A1C02610878704700B58FB0CDE965
:1007800001310021059105497944CDE90310114655
:100790006846FFF771FE0FB000BD0000E5FFFFFFE8
:1007A000007B00F080007047754600F029F8AE46E7
:1007B00005006946534620F00700854618B020B56D
:1007C000FFF782FDBDE820404FF000064FF0000724
:1007D0004FF000084FF0000B21F00701AC46ACE8E9
:1007E000C009ACE8C009ACE8C009ACE8C0098D4656
:1007F00070470446AFF300802046FFF751FD00002C
:1008000000487047B4040020FEE7704770B5B3F5A8
:10081000804F05D06FF0704140F82210002070BD6D
:1008200050F82230084C2340D1E9004544EA051431
:100830008D688E892D0245EA064589692C430C4353
:100840001C4340F82240E9E70000F0CFF0B50C6807
:1008500050F82450194A1540D1E90123D1E9036722
:100860001A433E4332434E6932438E693243CE6966
:1008700032430E6A32434E6A32438E6A3243CE6A44
:100880003243CE6B32430E6B32434E6B32432A43BC
:10089000082B01D142F0400240F824204A6BB2F507
:1008A000801F08D10A6832B14FF480720A6104498E
:1008B0000268114301600020F0BD00008000E0FFED
:1008C00000011000F0B500EB820253688E8903F03E
:1008D0004044D1E9003543EA05138D682D0245EA0D
:1008E00006452B430E8A0D4D05EB065633430E7D10
:1008F0006F0107EB066633438E693343234353602E
:100900000268D20207D54268098A22F4700205EB18
:100910000151114341600020F0BD00000000F0FFD4
:1009200030B5D1E901231A43D1E9033423431A43F3
:100930004B690D681A438B691A43D1E90734012DBD
:10094000496A05686FF30E0505D01A4322430A432E
:100950002A43026008E0234329430B4341680360B4
:100960006FF30E010A434260002030BD426942EA43
:100970004101416100207047F8B514460546D1E9B0
:10098000000210438A686FF01F03C96803EB42122C
:1009900042EA412108430090286100F047F90646E9
:1009A00009E0601C07D024B100F040F9801BA04290
:1009B00001D90320F8BDA8698006F2D40020F8BD53
:1009C000F0B56FF00F05D1E9003405EB04145B1EA0
:1009D0002E0123438C682F0306EB04244FEA054CB9
:1009E00023430D8A8E8ACC68097E4FF07F4E07EB39
:1009F00005450CEB06560EEB0161012A0CD082680E
:100A00003F1107EB043423432B43334302F070427E
:100A10000B43134383600FE0C2682B430B4302F088
:100A200070428168134301F070422103A1F58051A7
:100A300031431143C36081600020F0BD2DE9F84FC0
:100A4000DFF8A091002209F1040A0AF1040B4FF02B
:100A50000F080BF1040E01260B6896403340B34299
:100A600071D14C68022C01D0122C11D1D40800EBAA
:100A700084073D6A5407E40E08FA04FC25EA0C05D5
:100A8000D1F810C00CFA04FC4CEA050CC7F820C0E1
:100A900007685400032591F804C0A5400CF0030C2E
:100AA000AF430CFA04FC4CEA070CC0F800C04F68D6
:100AB000012F05D0022F03D0112F01D0122F11D1F9
:100AC0008768D1F80CC0AF430CFA04FC4CEA070C61
:100AD000C0F808C04768B7430E79C6F300169640C1
:100AE0003E434660C668AE438D68A5403543C56049
:100AF0004C68E4006FD53C4C256845F48045256082
:100B0000246822F0030504F480440094374C2E1925
:100B1000D6F808789407250F08FA05F4A743344C53
:100B2000A04201D100242EE0324CA04201D1012488
:100B300029E0314CA04201D1022424E02F4CA042F4
:100B400002D103241FE046E02D4CA04201D1042431
:100B500019E02C4CA04201D1052414E02A4CA042FB
:100B600001D106240FE0294CA04201D107240AE05C
:100B7000274CA04201D1082405E0264CA04201D117
:100B8000092400E00A24AC403C43C6F80848D9F8E0
:100B900000404D464E689C43F60300D51C432C6034
:100BA000DAF8004055464E689C43B60300D51C4316
:100BB0002C60DBF800405D464E689C43F60200D591
:100BC0001C432C60DEF8004075464E689C43B6021C
:100BD00000D51C432C60521C102AFFF43CAFBDE82A
:100BE000F88F0000003C01404438024000300140D2
:100BF000000002400004024000080240000C0240D5
:100C0000001002400014024000180240001C024084
:100C100000200240002402400069084000D001206A
:100C200070470AB1816170470904FBE70148006819
:100C3000704700001400002002480168491C016050
:100C400070470000140000200B4810B5016841F403
:100C500000710160016841F480610160016841F444
:100C600080710160052000F0BFF90F2000F006F848
:100C700000F08AF9002010BD003C024010B5044687
:100C800000F060FC4FF47A71B0FBF1F000F094FFDB
:100C900000222146501E00F087F9002010BD2DE9EA
:100CA000F041044690F8A00015460F4601281DD0DB
:100CB000012684F8A060022084F8A10005EB8500DD
:100CC00000EBC50004EB800034223830FFF798FCBD
:100CD0002A463946204604F0F5FA2068466284F830
:100CE000A160002084F8A000BDE8F0810220FBE7AD
:100CF00070B5040004D094F8A100002510B106E0FE
:100D0000012070BD84F8A050204600F06FF802204A
:100D100084F8A1002068816921F070418161D4E9E3
:100D200001100143D4E903021043014320688269A2
:100D300011438161206882682B490A408260A08A41
:100D4000020420688368A6693343134383602068E4
:100D5000C2680A40C260A08B02042068C368266A89
:100D600033431343C360206802690A400261A08CC8
:100D7000020420680369A66A3343134303612068B1
:100D800042690A404261A08D010420684269236BD8
:100D90001A430A43426194F83500020294F836007F
:100DA00001042068C36A03F07F43C3622068C36AFA
:100DB00094F83460114333430B43C3622068416BA2
:100DC00041F0040141632068416B41F0020141633D
:100DD0002068816941F001018161C4F8A4500120BB
:100DE00084F8A100002070BD00F800F030B536484E
:100DF00087B00025016841F080610160006800F063
:100E00008060059030481438016841F400010160A9
:100E1000016801F400010591016841F002010160DF
:100E2000016801F002010591016841F020010160B3
:100E3000016801F020010591016841F04001016065
:100E4000016801F040010591016841F080010160F5
:100E5000016801F080010591016841F48071016031
:100E60000068032400F48070059020200090012089
:100E7000CDE90204019069461448FFF7DFFD4FF405
:100E8000806000900220CDE901050E20CDE90340ED
:100E900069460F48FFF7D2FD4FF40C600090694699
:100EA0000C48FFF7CBFD4FF47E40009069460A489E
:100EB000FFF7C4FD40F2F760009069460748FFF76E
:100EC000BDFD07B030BD00004438024000040240C0
:100ED0000014024000180240001C024000200240A2
:100EE00070B5044690F8A0000E46012820D00125D8
:100EF00084F8A050022084F8A10003EB830000EBEB
:100F0000C30004EB800141F8386F886A3044C1E9BE
:100F10000102C86A1044C8601A46204604F0D2F99B
:100F20002068456284F8A150002084F8A00070BDBC
:100F3000022070BD2DE9F041044690F8A0000F4654
:100F400001281FD0012584F8A050022084F8A100B8
:100F500003EB830000EBC30004EB80010026E1E912
:100F60000E672046C1E90262C1E90A721A4604F01E
:100F7000A9F92068456284F8A15084F8A060002097
:100F8000BDE8F0810220FBE708B50020009008BD15
:100F900000F01F02012191404009800000F1E02093
:100FA000C0F8001170470000F0B40E4B1B68C3F38B
:100FB0000223C3F10704042C00D904241D1D072DAE
:100FC00001D2002300E0DB1E012606FA04F56D1EA7
:100FD0000D409D409E40761E164045EA0601F0BC3D
:100FE00004F036BA0CED00E0064A00F00701106884
:100FF0004FF6FF03184040EA012003490843106000
:10100000704700000CED00E00000FA052DE9F84300
:101010001D48016841F0805101600068012700F01F
:1010200080500090380490FAA0F0DFF86080B0FAA9
:1010300080F048F82070FFF7F9FD04464FF47A7508
:10104000134E04E0FFF7F2FD001BA84213D87068AE
:10105000C003F7D54FF4003090FAA0F0B0FA80F05A
:1010600048F82070FFF7E2FD044607E0FFF7DEFDD9
:10107000001BA84202D90320BDE8F88370688003F2
:10108000F4D50020F8E700004038024000000E428E
:10109000007000402DE9F84F04460068DFF87882C0
:1010A0009E4DC10747F6C07A4FF0E0464FF0010B66
:1010B0004FF0000901D180074BD59949C1F86890DC
:1010C000FFF7B4FD074604E0FFF7B0FDC01B64283E
:1010D0007ED828680001F7D420789249C0070DD047
:1010E0009AFAAAF26068B2FA82F2904096FAA6F3EF
:1010F000A268B3FA83F39A4010430860207880070F
:1011000018D5086896FAA6F200F0E040B2FA82F22A
:10111000D0406268237B920142EA036242EA007097
:101120000860D8F80010E26921F01F01521E114337
:10113000C8F800107A49C1F868B0FFF777FD074694
:1011400004E0FFF773FDC01B642841D82868000144
:10115000F7D52068410701D4000776D57049C1F85A
:101160007090FFF763FD074604E0FFF75FFDC01BCB
:1011700064282DD82868C0438000F6D520786A4FAF
:1011800040074FF0706C29D5386896FAA6F100F048
:10119000E040B1FA81F1C8409AFAAAF22169B2FAA4
:1011A00082F291409CFAACF36269B3FA83F39A40FD
:1011B000114396FAA6F2B2FA82F2904001433960E6
:1011C000D8F800106FF0FF0321F4F851226A00E014
:1011D00079E003EB02221143C8F8001020780007E1
:1011E00023D538689CFAACF100F07060B1FA81F157
:1011F000C8409AFAAAF22169B2FA82F291409CFAA6
:10120000ACF2B2FA82F29040014396FAA6F2A069DB
:10121000B2FA82F2904001433960D8F80010626A55
:1012200021F440311143C8F800103D49C1F870B0B5
:10123000FFF7FCFC064604E0FFF7F8FC801B64287F
:1012400041D82868C0438000F6D42078800651D564
:1012500032484F464030016841F0805101600068DB
:10126000324E00F080500090306840F48070306062
:10127000FFF7DCFC054604E0FFF7D8FC401B6428C0
:1012800021D83068C005F7D5264E143E3068218D30
:1012900000F4407001F4407188422BD0306824493A
:1012A00020F44070C1F800B00F603060800710D5A6
:1012B000FFF7BCFC054641F2883707E0FFF7B6FCB4
:1012C000401BB84202D90320BDE8F88F3068800780
:1012D000F4D5A06A1149C0F301220831032A13D0C2
:1012E000086820F4F81008603068218DC1F30B0104
:1012F000084330602078C00604D50E4994F82C00CD
:10130000C1F8E0010020DFE70A680B4B22F4F81275
:10131000184002430A60E7E78C3802400038024078
:101320000000474284380240883802400070004084
:10133000400E474200104742FFFCFF0F2DE9F05FCF
:10134000DFF8F8A104460F46DAF80000DFF8F08174
:1013500000F00F02C8B27A49814641F2883608F19E
:101360000808BA4261D202468AF80020DAF8000082
:1013700000F00F00B8427DD12078800707D5D8F85B
:101380000020A36822F0F0021A43C8F80020207859
:10139000C0072DD0606801281AD002281BD003286E
:1013A00019D009688907002964DAD8F8001047467F
:1013B00021F003010143C8F80010FFF737FC054690
:1013C000606801280FD0022818D003281CD027E01D
:1013D00009688903E7E709688901E4E7FFF726FC64
:1013E000401BB04258D83868C0F381000128F5D1BD
:1013F00088E0FFF71BFC401BB0424DD83868C0F3B3
:1014000081000228F5D17DE03868FFF70FFC401B12
:10141000B042F9D940E0FFF709FC401BB0423BD88D
:10142000386810F00C0FF6D16CE02078800707D5F3
:10143000D8F80020A36822F0F0021A43C8F8002070
:101440002078C0074CD06068012828D0022829D015
:10145000032827D009688907002949DAD8F800202D
:1014600022F003020243C8F80020FFF7DFFB054625
:10147000606800E03CE001281DD0022829D0032844
:1014800038D0B3464646306810F00C0F28D0FFF72E
:10149000CDFB411B5945F6D90320BDE8F09F0968F3
:1014A0008903D9E709688901D6E7FFF7BFFB411B2C
:1014B000594502D9F0E7B34646463068C0F381008B
:1014C0000128F2D10CE0FFF7B1FB411B594502D9CD
:1014D000E2E7B34646463068C0F381000228F2D105
:1014E0008AF80090DAF8000000F00F00B84209D046
:1014F0000120D2E744462068FFF798FB401BB0422A
:10150000F9D9C9E72078400707D5D8F80010E26874
:1015100021F4E0511143C8F800102078000708D5E5
:10152000D8F80010226921F4604141EAC201C8F8EC
:1015300000100F20FFF7A2FB0020AEE7003C0240A6
:101540000038024010B500F043F808490968F0225D
:1015500092FAA2F201F0F001B2FA82F2D140044A0A
:10156000515CC8400349086010BD000008380240C3
:10157000426E00080000002010B5FFF7E3FF0749A6
:1015800009684FF4E05292FAA2F201F4E051B2FA83
:1015900082F2D140024A515CC84010BD0838024076
:1015A000426E000810B5FFF7CDFF074909684FF4F8
:1015B000604292FAA2F201F46041B2FA82F2D140A2
:1015C000024A515CC84010BD08380240426E000813
:1015D00030B51948006810F00C01184812D0184CAA
:1015E00004290ED008290DD1134A121F116813685F
:1015F00001F03F015D0247F6C07304D5B4FBF1F082
:1016000003E0204630BDB0FBF1F01168194093FAB9
:10161000A3F3B3FA83F3D940484311684FF440323F
:1016200092FAA2F201F44031B2FA82F2D140491C9E
:101630004900B0FBF1F030BD083802400024F4004E
:1016400040787D012DE9F84F04460078DFF8FCA2D0
:10165000BF4DC0074FF0000648D0DAF800105046E2
:10166000C1F38101012908D00068C0F3810002287C
:101670000AD1281D0068400206D52868800335D5A8
:101680006068002873D031E0DFF8C49209F10209E4
:1016900089F80060FFF7CAFA074641F2883804E08B
:1016A000FFF7C4FAC11B41457AD828688003F7D4F4
:1016B000207989F80000606860B1FFF7B7FA074643
:1016C00004E0FFF7B3FAC11B4145EDD82868800359
:1016D000F7D50BE0FFF7AAFA074604E0FFF7A6FAF2
:1016E000C11B4145E0D828688003F7D42078DFF893
:1016F0006492800744D5DAF80010504611F00C0FC0
:101700004FF0F80809D00068C0F3810002280BD11F
:101710008E48001F0068400206D42868800714D550
:10172000E068012823D110E0E068D0B10120C9F8B9
:101730000000FFF77BFA074604E0FFF777FAC01BCB
:101740006428B1D828688007F7D5286898FAA8F2E5
:101750002169B2FA82F220F0F80091400843286033
:101760000EE0C9F80060FFF761FA074605E0EAE01D
:10177000FFF75CFAC01B642812D828688007F7D4EA
:101780002078000725D5DFF8C4817348616908F126
:101790006C0881B101210160FFF748FA074605E0B6
:1017A0007EE0FFF743FAC01B642879D8D8F8000020
:1017B0008007F6D50DE00660FFF738FA074604E02B
:1017C000FFF734FAC01B64286AD8D8F800008007F5
:1017D000F6D42078400753D55C483830016841F092
:1017E000805101600068DFF8748100F08050009043
:1017F000D8F8001041F48071C8F80010FFF716FA0D
:10180000074604E0FFF712FAC01B642848D8D8F84E
:101810000000C005F6D5DFF834B10BF1680B8BF88A
:101820000060FFF703FA074641F2883804E0FFF74B
:10183000FDF9C11B41457ED8DBF800008007F6D4D6
:10184000207A8BF80000A06868B1FFF7EFF907462F
:1018500004E0FFF7EBF9C11B41456CD8DBF8000051
:101860008007F6D50CE0FFF7E1F9074604E0FFF743
:10187000DDF9C11B41455ED8DBF800008007F6D4D6
:10188000A069E8B3DAF80010C1F3810102295AD047
:10189000022806D0C9F86060FFF7C8F904464DE099
:1018A00049E04F46C9F86060FFF7C0F9064604E01A
:1018B000FFF7BCF9801B64283DD828688001F7D465
:1018C000D4E90701084347F6C07191FAA1F1626AB1
:1018D000B1FA81F18A40A16A4FF0FF3303EB510165
:1018E0004FF4403393FAA3F3B3FA83F399400A43D6
:1018F00010434FF0706292FAA2F2B2FA82F200E064
:101900001FE0E16A914008431049091F0860012067
:101910003866FFF78BF9044604E0FFF787F9001BF0
:10192000642808D828688001F7D50AE0FFF77EF917
:10193000001B642802D90320BDE8F88F28688001C5
:10194000F4D40020F8E70120F6E700000838024050
:101950000038024000004742800E474200700040BD
:1019600070B50D46040003D094F82C0010B107E0C8
:10197000012070BD002084F82D00204600F012F8F0
:10198000022084F82C00211D2068FEF7C9FFD4E94D
:1019900000022946FFF714F8012084F82C000020EB
:1019A00070BD0000304800B5016887B041F001010A
:1019B0000160006800F0010005902B4808380168BC
:1019C00041F004010160016801F004010591016822
:1019D00041F008010160016801F00801059101680A
:1019E00041F010010160016801F0100105910168EA
:1019F00041F020010160016801F0200105910168BA
:101A000041F0400101600068694600F04000059027
:101A10000D200090022001900120029003200390ED
:101A20000C2004901148FFF709F84CF20370009065
:101A300069460F48FFF702F84FF683700090694639
:101A40000C48FEF7FBFF4FF63F00009069460A483E
:101A5000FEF7F4FF48F23710009069460748FEF79A
:101A6000EDFF07B000BD000038380240000802401A
:101A7000000C024000100240001402400018024016
:101A800010B5044690F82C00022809D0022084F8F2
:101A90002C002068FEF76AFF012084F82C0000204B
:101AA00010BD70B5044690F82C000D4602280CD0ED
:101AB000022084F82C002068FEF75EFF28680228C8
:101AC00004D0012084F82C00002070BD0520F9E727
:101AD00070B515460E46040003D094F8490010B1C5
:101AE00007E0012070BD002084F84800204600F087
:101AF0001BF804F108012068FEF7A8FE3146A26831
:101B00002068FEF7DFFED4E901022946236BFEF7C9
:101B10007DFEA168206850F8212042F0010240F8C3
:101B20002120002070BD00001A4800B5016887B070
:101B300041F001010160006800F0010005901548C6
:101B40000838016841F008010160016801F00801EE
:101B50000591016841F0100101600068694600F0DC
:101B6000100005904EF2B370009002200190012009
:101B70000290032003900C2004900748FEF75EFFBC
:101B80004FF68070009069460448FEF757FF07B093
:101B900000BD000038380240000C02400010024036
:101BA0004FF0E0210428086903D020F00400086108
:101BB000704740F00400FAE710B5401EB0F1807F96
:101BC00001D3012010BD4FF0E02460610F216017A8
:101BD00003F03EFC0020A06107202061002010BD22
:101BE00010B5040003D094F8390010B107E00120CB
:101BF00010BD002084F83800204600F00CF80220C8
:101C000084F83900211D206803F030FD012084F89C
:101C10003900002010BD70470168CA6842F0010217
:101C2000CA600068016841F001010160002070474E
:101C3000704738B5016804460868CA68C0F30000F8
:101C400002F4807238B132B1086848680090E06BE5
:101C500040F00100E06308684A69C0F3400002F008
:101C6000010238B132B1086848680090E06B40F07A
:101C70000400E06308684A69C0F3800002F00102D2
:101C800038B132B1086848680090E06B40F002005B
:101C9000E06308684A69C0F3C00002F0010238B18D
:101CA00032B1086848680090E06B40F00800E063DB
:101CB0000868C968C0F3401001F0200118B111B1E3
:101CC000204603F05DFD20680168C068C1F3C011C3
:101CD00000F0800019B110B1204603F05FFE2168CA
:101CE0000868CA68C0F3801002F04002012568B19C
:101CF00062B1CA68204622F04002CA6094F83910E6
:101D000032290CD080F8395000F0ECF8E06B002854
:101D100004D084F839502046FFF78AFF38BD2221CD
:101D200080F83910F0E770B5040004D094F8390059
:101D3000002510B106E0012070BD84F8385020461F
:101D400000F020F8022084F839002068C16821F4EE
:101D50000051C160204603F067FD2068016921F44D
:101D6000904101612068416921F02A0141612068A8
:101D7000C16841F40051C160E563012084F8390075
:101D8000002070BD30B504460068204987B0884205
:101D900039D11F48016841F001010160006800F07D
:101DA000010005901A481430016841F010010160EB
:101DB0000068012100F0100005904FF400700090C1
:101DC0000220CDE9010103900720124D04906946DD
:101DD0002846FEF733FE2815009069462846FEF790
:101DE0002DFE2068C16821F04001C1602068C168F3
:101DF00041F02001C1602520FFF7CAF803221146F7
:101E00002520FFF7D1F807B030BD000000100140D9
:101E100030380240000002402DE9F047044690F8B7
:101E2000390099460D46012801D0122857D125B313
:101E30001AB394F83800012851D0012684F838608C
:101E40000027E76394F83900122819D0222084F87B
:101E50003900A285E2854FF48058E08D4B46401E44
:101E6000E085A0684FF0000240454FF02001204679
:101E700016D103F0C6FDB0B904E00120BDE8F0873B
:101E80003220E4E7206900282068406803D0C1B20E
:101E900025F8011B12E0C0F3080125F8021B0DE034
:101EA00003F0AFFD08B10320E8E7206900282068AF
:101EB000406801D000F07F0005F8010BE08D00289C
:101EC000CBD194F83900322805D084F8396084F8F1
:101ED00038700020D2E7122084F83900F7E702209A
:101EE000CCE770477047FEE770B51B4886B0002509
:101EF000016841F001010160016801F001010591F3
:101F0000016841F004010160016801F004010591DC
:101F1000016841F0800101600068032400F0800046
:101F2000059002200126CDE90204CDE9006569464D
:101F30000A48FEF783FD700303948DE8610069464B
:101F40000748FEF77BFD0C20009069460548FEF728
:101F500075FD06B070BD0000303802400000024040
:101F600000080240001C024070B50E490E4A0646A9
:101F700008881268002422B13046BDE8704002F0A3
:101F800029BF4D8800214543084602F03BFD02F081
:101F9000E9FEB1B2054801E00180641CAC42FBD30C
:101FA00070BD00006C030020580400200000086091
:101FB0002DE9F05F394C3A4DA071296839B102F032
:101FC00029FFE88A2080288B6080BDE8F09F334994
:101FD0002C232A2589884FF0F00949F2413A2B2613
:101FE00045F2105B4FF4305E4FF448774FF4A07821
:101FF00045F2103C4FF4F07258B1A4F80080A4F8F8
:102000000290514501D0614529D123816581A68186
:1020100039E0A4F80090A4F80280514501D0614550
:1020200008D123816581A681614531D1A4F8008062
:1020300062802DE0594508D1A4F808E04FF42850FB
:1020400060814FF42C50A08106E0A1F5C8506338A0
:102050001ED123816681A5812280678018E05945C1
:1020600008D1A4F808E04FF4285060814FF42C50B8
:10207000A08106E0A1F5C850633804D123816581B1
:10208000A68127806280614502D12280A4F8028067
:10209000BDE8F05F002002F0D9BB00006C03002017
:1020A000580400202DE9FE4F0026A2EB00088246CE
:1020B0005F1A701E35468946B8F1000F02DD4FF0F9
:1020C000010102E003D14FF00001019102E0C8F1EB
:1020D00000080190002F02DD4FF0010002E003D163
:1020E0004FF00000009002E0C7F10007009040466A
:1020F000B84501DD044600E03C46601C4FF0000B93
:10210000029015E01FFA89F11FFA8AF000F016F824
:1021100046443D44A64202DD0199361B8A44A5424D
:1021200002DD00992D1B89440BF101001FFA80FB91
:1021300002998B45E6DDBDE8FE8F000010B5084A28
:10214000084C126822B12268BDE8104002F076BE49
:1021500002F058FC02F006FE03492088088010BDFA
:102160005804002024000020000008602DE9F04100
:102170001C4615460E4607460B46FFF793FF3A46A8
:10218000234631461046FFF78DFF23462A4619465F
:102190003846FFF787FF2A4623463146BDE8F0411F
:1021A0001046FFF77FBF2DE9FC5F804600241546EF
:1021B00003200F46A0EB450649E0781B81B208EBEF
:1021C000040A01901FFA8AF0FFF7B8FF381B81B2AA
:1021D00008EB050900901FFA89F0FFF7AFFF07EB46
:1021E000040B1FFA8BF11FFA89F0FFF7A7FF07EB2B
:1021F00005091FFA89F11FFA8AF0FFF79FFFA8EB84
:10220000040A1FFA89F11FFA8AF0FFF797FFA8EB7B
:1022100005091FFA8BF11FFA89F0FFF78FFF01986C
:1022200081B21FFA8AF0FFF789FF009881B21FFA86
:1022300089F0FFF783FF641C002E03DA06EB8406A7
:10224000B61D04E0601B06EB80066D1E0A36AC422C
:10225000B3DDBDE8FC9F00002DE9F041044639489C
:102260000D46006820B12046BDE8F04102F0E6BD11
:10227000354E270A3146B0884989A0F513434FEA05
:102280001528413B0BD0A0F5A643103B07D0B3F572
:10229000007311D0A0F5C853633B27D04BE008462C
:1022A00002F054FD384602F045FDE0B202F042FD76
:1022B000B08902F04BFD38E0084602F047FD384691
:1022C00002F038FD7089401C80B202F03FFDE0B2A0
:1022D00002F030FDB08902F039FD404602F02AFDDF
:1022E000B089401C80B202F031FD21E0B07918B90C
:1022F0003088001B401E84B2084602F027FD270AE2
:10230000384602F017FDE0B202F014FD384602F044
:1023100011FDE0B202F00EFDB08902F017FD40465B
:1023200002F008FDE8B202F005FD404602F002FDB1
:10233000E8B202F0FFFC054930890880881C028061
:10234000BDE8F081580400206C030020FEFF076008
:102350002DE9F8431F46144B804608981B6833B19B
:1023600000903B46404602F087FDBDE8F883A2EBB3
:102370000802521C96B20C4685B2DFF830900FE08E
:102380002146404602F03EFB02F0ECFC00204946AC
:1023900002E00D80401C80B2B042FAD3641CA4B2AB
:1023A000BC42EDD9E1E700005804002000000860BD
:1023B0002DE9F04F95B002F007FFFE4D4FF0010AF6
:1023C000A5F15009A88049F2413B45F2103645F28B
:1023D000105441F6631818B102F0A8FD02F08BB951
:1023E000F5480027016841F002010160006810A96A
:1023F00000F0020000902020CDE9100A0320CDE972
:1024000012A0EE48FEF71AFB4FF020414846C9F8EB
:102410000010EB49C0E901171021C9F80C70C0E9A0
:102420000471C9F818700902C9F81C70C0E9097173
:102430008900C0E90B71C9F834708901C9E90E71CE
:1024400046210B910F20CDE90907CDE90207049041
:10245000D8480F9702AA09A908975038FFF738FB08
:10246000322003F061FBD32002F070FC02F06EF921
:10247000A88002F06BF9A88002F068F94FF6FF72AD
:1024800002EA0020A88002F061F9A9885F460843AB
:10249000A880B84248D0D42002F058FC02F056F987
:1024A000A88002F053F9A88002F050F902EA002057
:1024B000A88002F04BF9A9880843A880B04233D025
:1024C0004FF45A4002F042FC02F040F9A8804FF469
:1024D0005B4002F03BFC02F039F902EA0020A880E0
:1024E0004FF45C4002F032FC02F030F9A988084356
:1024F000A880B0F5004F7DD0A04215D0A12002F0F9
:1025000025FC02F023F9A88002F020F902EA00205D
:10251000A88002F01BF9A9880843A0F5AE41A88065
:10252000613901D1A5F80480A988A6A0FDF7E0FED5
:10253000A888B8427ED1CF2002F008FC002002F02B
:10254000F9FBC12002F0F6FB302002F0F3FBED2096
:1025500002F0FCFB642002F0EDFB032002F0EAFB3A
:10256000122002F0E7FB812002F0E4FBE82002F0F9
:10257000EDFB852002F0DEFB102002F0DBFB7A2071
:1025800002F0D8FBCB2002F0E1FB392002F0D2FBB5
:102590002C2002F0CFFB002002F0CCFB342002F014
:1025A000C9FB022002F0C6FBF72002F0CFFB20207F
:1025B00002F0C0FBEA2002F0C9FB002002F0BAFBE7
:1025C000002002F0B7FBC02002F0C0FB1B2002F08D
:1025D000B1FBC12002F0BAFB012002F0ABFBC52029
:1025E00002F0B4FB302002F0A5FB302002F0A2FB89
:1025F000C72000E0B7E002F0A9FBB72002F09AFB89
:10260000362002F0A3FB482002F094FB3A2002F0AF
:102610009DFB552002F08EFBB12002F097FB0020BD
:1026200002F088FB1A2002F085FBB62002F08EFB38
:102630000A2000E099E002F07DFBA22002F07AFB84
:10264000F22002F083FB002002F074FB262002F04F
:102650007DFB012002F06EFBE02002F077FB0F20F3
:1026600002F068FB2A2002F065FB282002F062FBE2
:10267000082002F05FFB0E2002F05CFB082002F055
:1026800059FB542002F056FBA92002F053FB4320D3
:1026900002F050FB0A2002F04DFB0F2002F04AFB33
:1026A000002002F047FB002002F044FB002002F073
:1026B00041FB002002F03EFBE12002F047FB00203E
:1026C00002F038FB152002F035FB172002F032FB38
:1026D000072002F02FFB112002F02CFB062002F055
:1026E00029FB2B2002F026FB562002F023FB3C2086
:1026F00002F020FB052002F01DFB102002F01AFB67
:102700000F2002F017FB3F2002F014FB3F2002F0E5
:1027100011FB0F2002F00EFB2B2002F017FB002014
:1027200002F008FB002002F005FB012002F002FB92
:102730003F2002F0FFFA2A2002F008FB002002F0FE
:10274000F9FA002002F0F6FA002002F0F3FAEF2086
:1027500002F0F0FA112002F0F9FA782003F0E4F91F
:10276000292001F00BBFAC80DEE6B0427ED1ED2027
:1027700002F0ECFA012002F0DDFAFE2002F0DAFAB3
:10278000EE2002F0E3FADE2002F0D4FA212002F07B
:10279000D1FAF12002F0DAFA012002F0CBFADF20C0
:1027A00002F0D4FA102002F0C5FAC42002F0CEFAEA
:1027B0008F200FE06C0300203038024000040240FC
:1027C000040100A0204C43442049443A25780D0AD6
:1027D0000000000002F0AEFAC62002F0B7FA0020B6
:1027E00002F0A8FAE22002F0A5FAE22002F0A2FA32
:1027F000E22002F09FFABF2002F0A8FAAA2002F01D
:1028000099FAB02002F0A2FA0D2002F093FA00200B
:1028100002F090FA0D2002F08DFA002002F08AFA00
:10282000112002F087FA002002F084FA192002F049
:1028300081FA002002F07EFA212002F07BFA0020CB
:1028400002F078FA2D2002F075FA002002F072FAF8
:102850003D2002F06FFA002002F06CFA5D2002F0D9
:1028600069FA002002F066FA5D2000E0FEE302F063
:1028700061FA002002F05EFAB12002F067FA8020CF
:1028800002F058FA002002F055FA8B2002F052FABA
:10289000002002F04FFA962002F04CFA002002F0DD
:1028A00049FAB22002F052FA002002F043FA002066
:1028B00002F040FA022002F03DFA002002F03AFA5B
:1028C000032002F037FA002002F034FAB32002F0BD
:1028D0003DFA002002F02EFA002002F02BFA002030
:1028E00002F028FA002002F025FA002002F022FA75
:1028F000002002F01FFA002002F01CFA002002F073
:1029000019FA002002F016FA002002F013FA002053
:1029100002F010FA002002F00DFA002002F00AFA8C
:10292000002002F007FA002002F004FA002002F072
:1029300001FA002002F0FEF9002002F0FBF900206D
:1029400002F0F8F9002002F0F5F9002002F0F2F9A7
:10295000002002F0EFF9002002F0ECF9002002F074
:10296000E9F9B42002F0F2F98B2002F0E3F900203B
:1029700002F0E0F9962002F0DDF9002002F0DAF929
:10298000A12002F0D7F9002002F0D4F9B52002F01E
:10299000DDF9022002F0CEF9002002F0CBF903208D
:1029A00002F0C8F9002002F0C5F9042002F0C2F9D3
:1029B000002002F0BFF9B62002F0C8F9002002F0B2
:1029C000B9F9002002F0B6F9B72002F0BFF90020F3
:1029D00002F0B0F9002002F0ADF93F2002F0AAF9B0
:1029E000002002F0A7F95E2002F0A4F9002002F016
:1029F000A1F9642002F09EF9002002F09BF98C20DE
:102A000002F098F9002002F095F9AC2002F092F95A
:102A1000002002F08FF9DC2002F08CF9002002F097
:102A200089F9702002F086F9002002F083F99020E5
:102A300002F080F9002002F07DF9EB2002F07AF933
:102A4000002002F077F9DC2002F074F9002002F097
:102A500071F9B82002F07AF9002002F06BF9002039
:102A600002F068F9002002F065F9002002F062F936
:102A7000002002F05FF9002002F05CF9002002F073
:102A800059F9002002F056F9BA2002F05FF924202B
:102A900002F050F9002002F04DF9002002F04AF94E
:102AA000002002F047F9C12002F050F9202002F086
:102AB00041F9002002F03EF9542002F03BF90020D9
:102AC00002F038F9FF2002F035F9002002F032F967
:102AD000C22002F03BF90A2002F02CF9002002F09B
:102AE00029F9042002F026F9002002F023F9C3207E
:102AF00002F02CF93C2002F01DF9002002F01AF936
:102B00003A2002F017F9002002F014F9392002F0FF
:102B100011F9002002F00EF9372002F00BF9002025
:102B200002F008F93C2002F005F9002002F002F959
:102B3000362002F0FFF8002002F0FCF8322002F00C
:102B4000F9F8002002F0F6F82F2002F0F3F8002048
:102B500002F0F0F82C2002F0EDF8002002F0EAF884
:102B6000292002F0E7F8002002F0E4F8262002F025
:102B7000E1F8002002F0DEF8242002F0DBF800206B
:102B800002F0D8F8242002F0D5F8002002F0D2F8A4
:102B9000232002F0CFF8002002F0CCF83C2002F015
:102BA000C9F8002002F0C6F8362002F0C3F8002071
:102BB00002F0C0F8322002F0BDF8002002F0BAF8AE
:102BC0002F2002F0B7F8002002F0B4F82C2002F019
:102BD000B1F8002002F0AEF8292002F0ABF8002096
:102BE00002F0A8F8262002F0A5F8002002F0A2F8D2
:102BF000242002F09FF8002002F09CF8242002F02C
:102C000099F8002002F096F8232002F093F80020B3
:102C100002F090F8C42002F099F8622002F08AF8DD
:102C2000002002F087F8052002F084F8002002F06E
:102C300081F8842002F07EF8002002F07BF8F0207A
:102C400002F078F8002002F075F8182002F072F80F
:102C5000002002F06FF8A42002F06CF8002002F0CF
:102C600069F8182002F066F8002002F063F850209E
:102C700002F060F8002002F05DF80C2002F05AF833
:102C8000002002F057F8172002F054F8002002F05C
:102C900051F8952002F04EF8002002F04BF8F32096
:102CA00002F048F8002002F045F8E62002F042F871
:102CB000002002F03FF8C52002F048F8322002F070
:102CC00039F8002002F036F8442002F033F80020F2
:102CD00002F030F8652002F02DF8002002F02AF80A
:102CE000762002F027F8002002F024F8882002F075
:102CF00021F8002002F01EF8C62002F027F820205C
:102D000002F018F8002002F015F8172002F012F86F
:102D1000002002F00FF8012002F00CF8002002F071
:102D200009F8C72002F012F8002002F003F8002092
:102D300002F000F8002001F0FDFF002001F0FAFF92
:102D4000C82002F003F8002001F0F4FF002001F099
:102D5000F1FF002001F0EEFF002001F0EBFFC920A1
:102D600001F0F4FF002001F0E5FF002001F0E2FF98
:102D7000002001F0DFFF002001F0DCFF002001F067
:102D8000D9FF002001F0D6FF002001F0D3FF002082
:102D900001F0D0FF002001F0CDFF002001F0CAFFBC
:102DA000002001F0C7FF002001F0C4FF002001F067
:102DB000C1FF002001F0BEFF002001F0BBFF00209A
:102DC00001F0B8FFE02001F0C1FF162001F0B2FFD2
:102DD000002001F0AFFF1C2001F0ACFF002001F04B
:102DE000A9FF212001F0A6FF002001F0A3FF36205B
:102DF00001F0A0FF002001F09DFF462001F09AFFA6
:102E0000002001F097FF522001F094FF002001F014
:102E100091FF642001F08EFF002001F08BFF7A20EB
:102E200001F088FF002001F085FF8B2001F082FF78
:102E3000002001F07FFF992001F07CFF002001F0CD
:102E400079FFA82001F076FF002001F073FFB92080
:102E500001F070FF002001F06DFFC42001F06AFF57
:102E6000002001F067FFCA2001F064FF002001F09C
:102E700061FFD22001F05EFF002001F05BFFD9204E
:102E800001F058FF002001F055FFE02001F052FF53
:102E9000002001F04FFFF32001F04CFF002001F073
:102EA00049FFE12001F052FF162001F043FF00200E
:102EB00001F040FF1C2001F03DFF002001F03AFF2F
:102EC000222001F037FF002001F034FF362001F00E
:102ED00031FF002001F02EFF452001F02BFF0020E4
:102EE00001F028FF522001F025FF002001F022FF11
:102EF000642001F01FFF002001F01CFF7A2001F088
:102F000019FF002001F016FF8B2001F013FF0020B5
:102F100001F010FF992001F00DFF002001F00AFFE1
:102F2000A82001F007FF002001F004FFB92001F004
:102F300001FF002001F0FEFEC42001F0FBFE002096
:102F400001F0F8FECA2001F0F5FE002001F0F2FECB
:102F5000D22001F0EFFE002001F0ECFED82001F0BD
:102F6000E9FE002001F0E6FEE02001F0E3FE002093
:102F700001F0E0FEF32001F0DDFE002001F0DAFEBA
:102F8000E22001F0E3FE052001F0D4FE002001F074
:102F9000D1FE0B2001F0CEFE002001F0CBFE1B2065
:102FA00001F0C8FE002001F0C5FE342001F0C2FE91
:102FB000002001F0BFFE442001F0BCFE002001F023
:102FC000B9FE4F2001F0B6FE002001F0B3FE6120F3
:102FD00001F0B0FE002001F0ADFE792001F0AAFE64
:102FE000002001F0A7FE882001F0A4FE002001F0DF
:102FF000A1FE972001F09EFE002001F09BFEA6207E
:1030000001F098FE002001F095FEB72001F092FE3D
:10301000002001F08FFEC22001F08CFE002001F0A4
:1030200089FEC72001F086FE002001F083FED1203A
:1030300001F080FE002001F07DFED62001F07AFE36
:10304000002001F077FEDD2001F074FE002001F089
:1030500071FEF32001F06EFE002001F06BFEE32014
:1030600001F074FE052001F065FE00E00AE3002097
:1030700001F060FE0A2001F05DFE002001F05AFE22
:103080001C2001F057FE002001F054FE332001F017
:1030900051FE002001F04EFE442001F04BFE0020C6
:1030A00001F048FE502001F045FE002001F042FEF4
:1030B000622001F03FFE002001F03CFE782001F08C
:1030C00039FE002001F036FE882001F033FE00209A
:1030D00001F030FE972001F02DFE002001F02AFEC5
:1030E000A62001F027FE002001F024FEB72001F009
:1030F00021FE002001F01EFEC22001F01BFE002078
:1031000001F018FEC72001F015FE002001F012FEAC
:10311000D12001F00FFE002001F00CFED52001F0BF
:1031200009FE002001F006FEDD2001F003FE002074
:1031300001F000FEF32001F0FDFD002001F0FAFD9A
:10314000E42001F003FE012001F0F4FD002001F075
:10315000F1FD012001F0EEFD002001F0EBFD022069
:1031600001F0E8FD002001F0E5FD2A2001F0E2FD7C
:10317000002001F0DFFD3C2001F0DCFD002001F02B
:10318000D9FD4B2001F0D6FD002001F0D3FD5D20DC
:1031900001F0D0FD002001F0CDFD742001F0CAFD4A
:1031A000002001F0C7FD842001F0C4FD002001F0E3
:1031B000C1FD932001F0BEFD002001F0BBFDA22067
:1031C00001F0B8FD002001F0B5FDB32001F0B2FD23
:1031D000002001F0AFFDBE2001F0ACFD002001F0A9
:1031E000A9FDC42001F0A6FD002001F0A3FDCD2023
:1031F00001F0A0FD002001F09DFDD32001F09AFD1B
:10320000002001F097FDDD2001F094FD002001F089
:1032100091FDF32001F08EFD002001F08BFDE520F3
:1032200001F094FD002001F085FD002001F082FDF9
:10323000002001F07FFD002001F07CFD022001F064
:1032400079FD002001F076FD292001F073FD0020BA
:1032500001F070FD3C2001F06DFD002001F06AFDE1
:103260004B2001F067FD002001F064FD5D2001F0BE
:1032700061FD002001F05EFD742001F05BFD002087
:1032800001F058FD842001F055FD002001F052FDB1
:10329000932001F04FFD002001F04CFDA22001F031
:1032A00049FD002001F046FDB32001F043FD002060
:1032B00001F040FDBE2001F03DFD002001F03AFD8F
:1032C000C42001F037FD002001F034FDCD2001F0D5
:1032D00031FD002001F02EFDD32001F02BFD002058
:1032E00001F028FDDC2001F025FD002001F022FD89
:1032F000F32001F01FFD002001F01CFDE62001F08D
:1033000025FD112001F016FD002001F013FD3420F1
:1033100001F010FD002001F00DFD562001F00AFD26
:10332000002001F007FD762001F004FD002001F0EF
:1033300001FD772001F0FEFC002001F0FBFC66207F
:1033400001F0F8FC002001F0F5FC882001F0F2FC0F
:10335000002001F0EFFC992001F0ECFC002001F0CE
:10336000E9FCBB2001F0E6FC002001F0E3FC992021
:1033700001F0E0FC002001F0DDFC662001F0DAFC49
:10338000002001F0D7FC552001F0D4FC002001F012
:10339000D1FC552001F0CEFC002001F0CBFC4520F3
:1033A00001F0C8FC002001F0C5FC432001F0C2FC84
:1033B000002001F0BFFC442001F0BCFC002001F023
:1033C000B9FCE72001F0C2FC322001F0B3FC002080
:1033D00001F0B0FC552001F0ADFC002001F0AAFC8A
:1033E000762001F0A7FC002001F0A4FC662001F08B
:1033F000A1FC002001F09EFC672001F09BFC002056
:1034000001F098FC672001F095FC002001F092FC8F
:10341000872001F08FFC002001F08CFC992001F046
:1034200089FC002001F086FCBB2001F083FC002019
:1034300001F080FC992001F07DFC002001F07AFC75
:10344000772001F077FC002001F074FC442001F0AB
:1034500071FC002001F06EFC562001F06BFC002096
:1034600001F068FC232001F065FC002001F062FC03
:10347000332001F05FFC002001F05CFC452001F0EE
:1034800059FC002001F056FCE82001F05FFC002010
:1034900001F050FC002001F04DFC992001F04AFCA5
:1034A000002001F047FC872001F044FC002001F0DF
:1034B00041FC882001F03EFC002001F03BFC77201D
:1034C00001F038FC002001F035FC662001F032FCF0
:1034D000002001F02FFC882001F02CFC002001F0DE
:1034E00029FCAA2001F026FC002001F023FCBB20CF
:1034F00001F020FC002001F01DFC992001F01AFCD5
:10350000002001F017FC662001F014FC002001F0FF
:1035100011FC552001F00EFC002001F00BFC5520A1
:1035200001F008FC002001F005FC442001F002FC41
:10353000002001F0FFFB442001F0FCFB002001F023
:10354000F9FB552001F0F6FB002001F0F3FBE92028
:1035500001F0FCFBAA2001F0EDFB002001F0EAFBEA
:10356000002001F0E7FB002001F0E4FB002001F067
:10357000EDFBAA2001F0DEFBCF2001F0E7FB0020ED
:1035800001F0D8FB002001F0D5FB002001F0D2FBB8
:10359000002001F0CFFB002001F0CCFB002001F067
:1035A000C9FB002001F0C6FB002001F0C3FB002096
:1035B00001F0C0FB002001F0BDFB002001F0BAFBD0
:1035C000002001F0B7FB002001F0B4FB002001F067
:1035D000B1FB002001F0AEFB002001F0ABFB0020AE
:1035E00001F0A8FBF02001F0B1FB002001F0A2FBEC
:1035F000502001F09FFB002001F09CFB002001F017
:1036000099FB002001F096FBF32001F09FFB0020C6
:1036100001F090FBF92001F099FB062001F08AFBF4
:10362000102001F087FB292001F084FB002001F02D
:1036300081FB3A2001F08AFB552001F07BFB112031
:1036400001F084FB642002F06FFA292001F07EFB78
:10365000352001F07BFB002001F06CFB512001F0D4
:1036600075FBFF2001F066FB532001F06FFB2C205F
:1036700001F060FB552001F069FB822001F05AFB4C
:103680002C20FDE3A0427DD14FF470435521184614
:1036900001F072FB4FF20107AA21384601F06CFBE2
:1036A0005221781C01F068FB0821B81C01F064FB72
:1036B0000121F81C01F060FB0D214FF4304001F0B6
:1036C0005BFB0D214BF2010001F056FB0D214BF28B
:1036D000020001F051FB34214FF4364001F04CFB65
:1036E00034214BF2016001F047FB34214BF20260C0
:1036F00001F042FB0D214FF4314001F03DFB0D2163
:103700004BF2011001F038FB0D214BF2021001F0D9
:1037100033FB34214FF4374001F02EFB34214BF2C0
:10372000017001F029FB34214BF2027001F024FBFF
:1037300000214FF4324001F01FFB00214BF2012029
:1037400001F01AFB00214BF2022001F015FB2421AD
:103750004FF4384001F010FB24214BF6010001F03A
:103760000BFB24214BF6020001F006FB01214FF474
:103770003F4001F001FB0F214FF4334001F0FCFA10
:103780000F2100E0FEE34BF2013001F0F5FA0F21CA
:103790004BF2023001F0F0FA34214FF4394001F0DD
:1037A000EBFA34214BF6011001F0E6FA34214BF626
:1037B000021001F0E1FA08214FF4354001F0DCFA83
:1037C00008214BF2015001F0D7FA08214BF20250C8
:1037D00001F0D2FA03214FF4424001F0CDFA242146
:1037E0004FF43A4001F0C8FA24214BF6012001F0D1
:1037F000C3FA24214BF6022001F0BEFA00214FF457
:103800003C4001F0B9FA78214BF6014001F0B4FADE
:1038100000214BF6024001F0AFFA00214FF43D4089
:1038200001F0AAFA78214BF6015001F0A5FA002127
:103830004BF6025001F0A0FA00214FF43E4001F097
:103840009BFA64214BF6016001F096FA00214FF4D7
:10385000514001F091FA33214DF2011001F08CFA40
:1038600000214DF2021001F087FA34214DF20310CD
:1038700001F082FA00214DF2041001F07DFA3A21A4
:103880004DF2051001F078FA00214DF2061001F01A
:1038900073FA4A214DF2071001F06EFA00214DF241
:1038A000081001F069FA5C214DF2091001F064FA88
:1038B00000214DF20A1001F05FFA81214DF20B1048
:1038C00001F05AFA00214DF20C1001F055FAA62130
:1038D0004DF20D1001F050FA00214DF20E1001F0E2
:1038E0004BFAE5214DF20F1001F046FA01214DF29D
:1038F000101001F041FA13214DF2111001F03CFAC1
:1039000001214DF2121001F037FA54214DF213103B
:1039100001F032FA01214DF2141001F02DFA82214A
:103920004DF2151001F028FA01214DF2161001F0A8
:1039300023FACA214DF2171001F01EFA02214DF2AE
:10394000181001F019FA00214DF2191001F014FAC3
:1039500002214DF21A1001F00FFA01214DF21B1055
:1039600001F00AFA02214DF21C1001F005FA34218F
:103970004DF21D1001F000FA02214DF21E1001F06F
:10398000FBF967214DF21F1001F0F6F902214DF20B
:10399000201001F0F1F984214DF2211001F0ECF931
:1039A00002214DF2221001F0E7F9A4214DF223107B
:1039B00001F0E2F902214DF2241001F0DDF9B72106
:1039C0004DF2251001F0D8F902214DF2261001F038
:1039D000D3F9CF214DF2271001F0CEF902214DF29B
:1039E000281001F0C9F9DE214DF2291001F0C4F9C7
:1039F00002214DF22A1001F0BFF9F2214DF22B10F5
:103A000001F0BAF902214DF22C1001F0B5F9FE21B6
:103A10004DF22D1001F0B0F903214DF22E1001F0FE
:103A2000ABF910214DF22F1001F0A6F903214DF250
:103A3000301001F0A1F933214DF2311001F09CF961
:103A400003214DF2321001F097F96D214DF2331040
:103A500001F092F900214FF4524001F08DF9332129
:103A60004DF2012001F088F900214DF2022001F011
:103A700083F934214DF2032001F07EF900214DF24B
:103A8000042001F079F93A214DF2052001F074F992
:103A900000214DF2062001F06FF94A214DF2072076
:103AA00001F06AF900214DF2082001F065F95C216E
:103AB0004DF2092001F060F900214DF20A2001F0D9
:103AC0005BF981214DF20B2001F056F900214DF2F6
:103AD0000C2001F051F9A6214DF20D2001F04CF916
:103AE00000214DF20E2001F047F9E5214DF20F20A3
:103AF00001F042F901214DF2102001F03DF91321AE
:103B00004DF2112001F038F901214DF2122001F09F
:103B100033F954214DF2132001F02EF901214DF219
:103B2000142001F029F982214DF2152001F024F929
:103B300001214DF2162001F01FF9CA214DF2172084
:103B400001F01AF902214DF2182001F015F90021B7
:103B50004DF2192001F010F902214DF21A2001F066
:103B60000BF901214DF21B2001F006F902214DF263
:103B70001C2001F001F934214DF21D2001F0FCF868
:103B800002214DF21E2001F0F7F867214DF21F20AF
:103B900001F0F2F802214DF2202001F0EDF884212D
:103BA0004DF2212001F0E8F802214DF2222001F02F
:103BB000E3F8A4214DF2232001F0DEF802214DF2BA
:103BC000242001F0D9F8B7214DF2252001F0D4F8D6
:103BD00002214DF2262001F0CFF8CF214DF227200F
:103BE00001F0CAF802214DF2282001F0C5F8DE21CB
:103BF0004DF2292001F0C0F802214DF22A2001F0F7
:103C0000BBF8F2214DF22B2001F0B6F802214DF263
:103C10002C2001F0B1F8FE214DF22D2001F0ACF87E
:103C200003214DF22E2001F0A7F810214DF22F2094
:103C300001F0A2F803214DF2302001F09DF833216C
:103C40004DF2312001F098F803214DF2322001F0BD
:103C500093F86D214DF2332001F08EF800214FF4DE
:103C6000534001F089F833214DF2013001F084F81E
:103C700000214DF2023001F07FF834214DF2033083
:103C800001F07AF800214DF2043001F075F83A2184
:103C90004DF2053001F070F800214DF2063001F0D0
:103CA0006BF84A214DF2073001F066F800214DF221
:103CB000083001F061F85C214DF2093001F05CF848
:103CC00000214DF20A3001F057F881214DF20B30FE
:103CD00001F052F800214DF20C3001F04DF8A62110
:103CE0004DF20D3001F048F800214DF20E3001F098
:103CF00043F8E5214DF20F3001F03EF801214DF27D
:103D0000103001F039F813214DF2113001F034F880
:103D100001214DF2123001F02FF854214DF21330F1
:103D200001F02AF801214DF2143001F025F882212A
:103D30004DF2153001F020F801214DF2163001F05E
:103D40001BF8CA214DF2173001F016F802214DF28E
:103D5000183001F011F800214DF2193001F00CF883
:103D600002214DF21A3001F007F801214DF21B300B
:103D700001F002F802214DF21C3000F0FDFF342169
:103D80004DF21D3000F0F8FF02214DF21E3000F020
:103D9000F3FF67214DF21F3000F0EEFF02214DF2DC
:103DA000203000F0E9FF84214DF2213000F0E4FFE3
:103DB00002214DF2223000F0DFFFA4214DF223302A
:103DC00000F0DAFF02214DF2243000F0D5FFB721D8
:103DD0004DF2253000F0D0FF02214DF2263000F0E8
:103DE000CBFFCF214DF2273000F0C6FF02214DF26C
:103DF000283000F0C1FFDE214DF2293000F0BCFF79
:103E000002214DF22A3000F0B7FFF2214DF22B30A3
:103E100000F0B2FF02214DF22C3000F0ADFFFE2188
:103E20004DF22D3000F0A8FF03214DF22E3000F0AE
:103E3000A3FF10214DF22F3000F09EFF03214DF221
:103E4000303000F099FF33214DF2313000F094FF13
:103E500003214DF2323000F08FFF6D214DF23330EF
:103E600000F08AFF00214FF4544000F085FF332119
:103E70004DF2014000F080FF00214DF2024000E0D1
:103E80007CE300F079FF34214DF2034000F074FF31
:103E900000214DF2044000F06FFF3A214DF2054041
:103EA00000F06AFF00214DF2064000F065FF4A2154
:103EB0004DF2074000F060FF00214DF2084000F095
:103EC0005BFF5C214DF2094000F056FF00214DF2EE
:103ED0000A4000F051FF81214DF20B4000F04CFFF1
:103EE00000214DF20C4000F047FFA6214DF20D409D
:103EF00000F042FF00214DF20E4000F03DFFE521B1
:103F00004DF20F4000F038FF01214DF2104000F05B
:103F100033FF13214DF2114000F02EFF01214DF22D
:103F2000124000F029FF54214DF2134000F024FF0D
:103F300001214DF2144000F01FFF82214DF2154087
:103F400000F01AFF01214DF2164000F015FFCA21C2
:103F50004DF2174000F010FF02214DF2184000F022
:103F60000BFF00214DF2194000F006FF02214DF237
:103F70001A4000F001FF01214DF21B4000F0FCFE51
:103F8000022100E0FDE24DF21C4000F0F5FE34217C
:103F90004DF21D4000F0F0FE02214DF21E4000F0F7
:103FA000EBFE67214DF21F4000F0E6FE02214DF2CC
:103FB000204000F0E1FE84214DF2214000F0DCFEC3
:103FC00002214DF2224000F0D7FEA4214DF2234001
:103FD00000F0D2FE02214DF2244000F0CDFEB721C8
:103FE0004DF2254000F0C8FE02214DF2264000F0BF
:103FF000C3FECF214DF2274000F0BEFE02214DF25C
:10400000284000F0B9FEDE214DF2294000F0B4FE58
:1040100002214DF22A4000F0AFFEF2214DF22B407A
:1040200000F0AAFE02214DF22C4000F0A5FEFE2178
:104030004DF22D4000F0A0FE03214DF22E4000F085
:104040009BFE10214DF22F4000F096FE03214DF211
:10405000304000F091FE33214DF2314000F08CFEF3
:1040600003214DF2324000F087FE6D214DF23340C6
:1040700000F082FE00214FF4554000F07DFE332118
:104080004DF2015000F078FE00214DF2025000F098
:1040900073FE34214DF2035000F06EFE00214DF20C
:1040A000045000F069FE3A214DF2055000F064FE24
:1040B00000214DF2065000F05FFE4A214DF20750FC
:1040C00000F05AFE00214DF2085000F055FE5C2130
:1040D0004DF2095000F050FE00214DF20A5000F060
:1040E0004BFE81214DF20B5000F046FE00214DF2B7
:1040F0000C5000F041FEA6214DF20D5000F03CFEA8
:1041000000214DF20E5000F037FEE5214DF20F5028
:1041100000F032FE01214DF2105000F02DFE13216F
:104120004DF2115000F028FE01214DF2125000F026
:1041300023FE54214DF2135000F01EFE01214DF2DA
:10414000145000F019FE82214DF2155000F014FEBB
:1041500001214DF2165000F00FFECA214DF217500A
:1041600000F00AFE02214DF2185000F005FE002179
:104170004DF2195000F000FE02214DF21A5000F0ED
:10418000FBFD01214DF21B5000F0F6FD02214DF226
:104190001C5000F0F1FD34214DF21D5000F0ECFDFB
:1041A00002214DF21E5000F0E7FD67214DF21F5035
:1041B00000F0E2FD02214DF2205000F0DDFD8421EF
:1041C0004DF2215000F0D8FD02214DF2225000F0B6
:1041D000D3FDA4214DF2235000F0CEFD02214DF27B
:1041E000245000F0C9FDB7214DF2255000F0C4FD68
:1041F00002214DF2265000F0BFFDCF214DF2275095
:1042000000F0BAFD02214DF2285000F0B5FDDE218C
:104210004DF2295000F0B0FD02214DF22A5000F07D
:10422000ABFDF2214DF22B5000F0A6FD02214DF224
:104230002C5000F0A1FDFE214DF22D5000F09CFD10
:1042400003214DF22E5000F097FD10214DF22F501A
:1042500000F092FD03214DF2305000F08DFD33212E
:104260004DF2315000F088FD03214DF2325000F044
:1042700083FD6D214DF2335000F07EFD00214FF49F
:10428000564000F079FD33214DF2016000F074FDDD
:1042900000214DF2026000F06FFD34214DF2036009
:1042A00000F06AFD00214DF2046000F065FD3A2146
:1042B0004DF2056000F060FD00214DF2066000F057
:1042C0005BFD4A214DF2076000F056FD00214DF2E2
:1042D000086000F051FD5C214DF2096000F04CFDDA
:1042E00000214DF20A6000F047FD81214DF20B6084
:1042F00000F042FD00214DF20C6000F03DFDA621D2
:104300004DF20D6000F038FD00214DF20E6000F01E
:1043100033FDE5214DF20F6000F02EFD01214DF23D
:10432000106000F029FD13214DF2116000F024FD12
:1043300001214DF2126000F01FFD54214DF2136077
:1043400000F01AFD01214DF2146000F015FD8221EC
:104350004DF2156000F010FD01214DF2166000F0E5
:104360000BFDCA214DF2176000F006FD02214DF24F
:10437000186000F001FD00214DF2196000F0FCFC16
:1043800002214DF21A6000F0F7FC01214DF21B6092
:1043900000F0F2FC02214DF21C6000F0EDFC342133
:1043A0004DF21D6000F0E8FC02214DF21E6000F0AD
:1043B000E3FC67214DF21F6000F0DEFC02214DF2AC
:1043C000206000F0D9FC84214DF2216000F0D4FC83
:1043D00002214DF2226000F0CFFCA4214DF22360B7
:1043E00000F0CAFC02214DF2246000F0C5FCB721A8
:1043F0004DF2256000F0C0FC02214DF2266000F075
:10440000BBFCCF214DF2276000F0B6FC02214DF23B
:10441000286000F0B1FCDE214DF2296000F0ACFC18
:1044200002214DF22A6000F0A7FCF2214DF22B6030
:1044300000F0A2FC02214DF22C6000F09DFCFE2158
:104440004DF22D6000F098FC03214DF22E6000F03B
:1044500093FC10214DF22F6000F08EFC03214DF2F1
:10446000306000F089FC33214DF2316000F084FCB3
:1044700003214DF2326000F07FFC6D214DF233607C
:1044800000F07AFC5521184600F076FCAA21384647
:1044900000F072FC5221781C00F06EFC0821B81C60
:1044A00000F06AFC0021F81C00F066FCCC214FF4FF
:1044B000314000F061FC00214BF2011000F05CFC87
:1044C00005214FF4364000F057FC70214FF437407F
:1044D00000F052FC70214BF2017000F04DFC012104
:1044E0004FF4384000F048FC03214BF6010000F087
:1044F00043FC03214BF6020000F03EFC03214BF687
:10450000030000F039FC02214FF43C4000F034FC81
:1045100000214BF6014000F02FFC00214BF6024039
:1045200000F02AFCD0214FF4494000F025FC022184
:104530004CF6011000F020FC50214CF6021000F067
:104540001BFC50214CF6031000F016FC50214CF6D9
:10455000041000F011FC00214FF4545000F00CFC4A
:1045600055214FF4685000F007FC4FF4885000F0DC
:10457000EDFB782001F0E6FA4FF4245000F0E6FB62
:10458000B9E04045FCD1E22000F0E0FB1D2000F046
:10459000D1FB022000F0CEFB042000F0CBFB642016
:1045A00001F0D0FAE02000F0D1FB012000F0C2FBC6
:1045B0000A2001F0B9FAE02000F0C8FB032000F067
:1045C000B9FB0C2001F0B0FA012000F0BFFB0A207B
:1045D00001F0AAFAE62000F0B9FB2F2000F0AAFBB8
:1045E000FF2000F0A7FBFF2000F0A4FBB02000F0AC
:1045F000ADFB202000F09EFB002000F09BFB032081
:1046000000F098FB40F21F3000F094FB012000F016
:1046100091FB40F2DF1000F08DFB002000F08AFBE0
:10462000B42000F093FB042000F084FB40F21F4014
:1046300000F080FB002000F07DFB2E2000F07AFBD4
:10464000002000F077FB002000F074FB002000F059
:1046500071FB002000F06EFBB62000F077FB02201B
:1046600000F068FB4FF4037000F064FB002000F0E2
:1046700061FB172000F05EFB152000F05BFB0020C3
:1046800000F058FB002000F055FBF02000F05EFB2E
:10469000032000F04FFB292000F058FBD02000F051
:1046A00055FB002000F046FBBE2000F04FFB05202C
:1046B00000F040FBFE2000F03DFB012000F03AFB43
:1046C000002000F037FB002000F034FB002000F059
:1046D00031FBB82000F03AFB032000F02BFB012057
:1046E00000F028FBBA2000F031FB012000F022FB93
:1046F000642000F083F8A888584505D0B04203D064
:10470000A04201D0404509D1042002900490D9E98B
:10471000010202A9D9F83030FCF778F80020FDF743
:1047200047FC0549C1F894A24FF6FF70FDF71CFC49
:1047300015B0BDE8F08F0000008040420346012024
:1047400000E05843491EC9B2FBD27047034808B580
:104750000088ADF80000BDF8000008BD000008604A
:1047600010B5244C2288824202D962888A4201D83C
:10477000002010BD204A12681AB1BDE8104000F0B8
:104780007FBD00F03FF9A08841F66312A0F5134108
:10479000413905D0A0F5A641103901D0904201D190
:1047A0002E2005E0A0F5AA41103903D14FF438506E
:1047B00000F0CCFAFFF7CAFFA1889142D9D00220BD
:1047C000401EC0B2FCD2FFF7C1FF04460221491EC1
:1047D000C9B2FCD2FFF7BAFFE1B24FF6FF7202EAAC
:1047E000012124EA6212890A42EA411141EAD020F9
:1047F00010BD00006C0300205804002010B50246D4
:10480000BE2000F0A3FA052000F094FA104602F052
:1048100002FA9FED0C1B53EC112B02F00FFA02F081
:10482000CDF980B200F086FA012000F083FAFF2073
:1048300000F080FA002000F07DFABDE81040002072
:1048400000F078BA6666666666660440F0B56C4D40
:1048500000232946AA79898841F66314012A01D0E8
:104860001AB11BE0A14202D118E0A14216D10828DA
:1048700014D2DFE800F00406080A0C0E101206201D
:104880000CE007200AE0042008E0052006E00120F3
:1048900004E0002002E0032000E00220A1F513471D
:1048A00045F2103245F21056413F05D0914203D0F7
:1048B000B14201D0A14277D1082812D2DFE800F03E
:1048C000110406080A0C0E1080230AE0402308E0B9
:1048D000C02306E0202304E0602302E0A02300E0E0
:1048E000E023B14202D14FF4585000E0362091420B
:1048F00005D0B14203D0A14201D043F008031946CC
:1049000000F03AFAAA88A2420AD098062888698854
:1049100002D5884202D303E0884201D92980688009
:104920006889B24241D100F011FA002000F002FA89
:104930006889401C80B200F009FA002000F0FAF902
:104940006889801C80B200F001FA2888401EC0F3FC
:104950000F2000F0EFF96889C01C80B200F0F6F972
:104960002878401EC0B200F0E5F9A88900F0EEF901
:10497000002000F0DFF9A889401C80B200F0E6F9C1
:10498000002000F0D7F9A889801C80B200F0DEF981
:104990006888401EC0F30F2000F0CCF9A889C01C25
:1049A00080B200F0D3F922E028E000F0CFF9002037
:1049B00000F0C0F9002000F0BDF92888401EC0F3C7
:1049C0000F2000F0B7F92878401EC0B200F0B2F90D
:1049D000A88900F0BBF9002000F0ACF9002000F03D
:1049E000A9F96888401EC0F30F2000F0A3F9A87849
:1049F000BDE8F040401EC0B200F09CB9F0BD000020
:104A00006C030020F0B53F4D0C460246060AA9880B
:104A10002846270A4089A1F51343413B28D0A1F538
:104A2000A643103B24D0A1F5C853633B2FD0A1F57A
:104A3000AA43103B64D100F089F9304600F07AF9BE
:104A40006889401C80B200F081F9D0B200F072F9A0
:104A5000A88900F07BF9384600F06CF9A889401C61
:104A600080B200F073F9E0B2BDE8F04000F062B946
:104A700000F06CF9304600F05DF9D0B200F05AF960
:104A8000A88900F063F9384600F054F9EBE7A979FA
:104A900029B300F05BF9304600F04CF9D0B200F0D9
:104AA00049F92888401EC0F30F2000F043F9287808
:104AB000401EC0B200F03EF9A88900F047F9384620
:104AC00000F038F9E0B200F035F96888401EC0F314
:104AD0000F2000F02FF9A878401EC0B2C4E7298843
:104AE000891A491E8AB200F031F9002000F022F93B
:104AF000002000F01FF9100A00F01CF9D0B2D9E72D
:104B0000F0BD00006C0300202DE9F84F82461F46DF
:104B10000E468B46580700D0012000EBD7007908DD
:104B200010FB01F0203AC0B202F0FF09002500900E
:104B300047E00C2F10D0102F12D0182F14D0202F98
:104B400042D1224901EBC9104FF00008445D200614
:104B500010D51F48026811E009EB49001D4906E025
:104B60001D4901EB0910EFE71C4909EBC90001EBF6
:104B70008000E9E70A9828B915484268314650464E
:104B8000FDF76AFB6006040E1548761CB6B2408835
:104B9000B04219D9A6EB0B00B84209D10AF10100C5
:104BA0001FFA80FA0E485E46018851450CD906E08E
:104BB00008F1010000F0FF08B8F1080FC7D36D1C21
:104BC000EDB200988542B4D3BDE8F88F1286000894
:104BD00024000020526E0008C6720008B678000853
:104BE0006C0300202DE9FF4F81B00027DDF838B0BD
:104BF0001D46924680463C46B9464FEA5B0627E092
:104C0000281B401EC1B20A20FFF798FDBAFBF0F046
:104C10000A21B0FBF1F201FB120027B9691E8C4298
:104C200001DA48B101273030C2B206FB048080B2FD
:104C30005B46CDF8009006E006FB048080B25B4640
:104C40002022CDF800900299FFF75EFF641CE4B2C9
:104C5000AC42D5D305B0BDE8F08F2DE9F84F04463E
:104C600000F0FF0810190D46DDE90A761FFA80FAF8
:104C700058191FFA80F94FF0000B11E0544502D388
:104C8000E819444685B24D450FD23B462946204699
:104C9000CDF800B0FFF738FF04EB570084B2761C64
:104CA0003278A2F120005E28E8D9BDE8F88F2DE91E
:104CB000FF4F81B08046DDF83CA00E984FF0000910
:104CC0001F4693464C460AF0010546082BE0381B68
:104CD000401EC1B20A20FFF731FDBBFBF0F00A21F4
:104CE000B0FBF1F201FB1200B9F1000F05D1791E02
:104CF0008C4202DA48B14FF001093030C2B206FBF3
:104D0000048080B200950E9B08E05FEA0A6006FB13
:104D100004800E9B80B200950AD530220299FFF7DD
:104D2000F3FE641CE4B2BC42D1D305B0BDE8F08F01
:104D30002022F3E701B5BDF80000ADF80000BDF892
:104D400000000149088008BD0000086001B5BDF8F9
:104D50000000ADF80000BDF800000149088008BD62
:104D6000FEFF076002480349008908807047000081
:104D70006C030020FEFF0760024A1080901C018037
:104D800070470000FEFF0760104810B5016886B04C
:104D900041F0020101600068012100F0020005906D
:104DA0000320CDE90210CDE90001094C69462046F7
:104DB000FBF744FE012211462046FBF732FF012299
:104DC00002212046FBF72DFF06B010BD303802400F
:104DD0000004024008B500900548018BC08A491EB6
:104DE0008BB2401E82B20021084600F045F808BD93
:104DF0005804002000B58DB0082309920490009358
:104E000006916846FCF746F9002800D001200DB055
:104E100000BD000010B5084B1C465875A1888AB229
:104E2000218889B220B1012801D1D9821A8310BD0D
:104E3000DA82198310BD000058040020F0B50C4F31
:104E400094B23D46DFF82CC02B68EA692D7D7E7D4B
:104E50005CF8255026B103FB01004243AC52F0BD83
:104E60007E68301A401E03FB001050432C52F0BDE8
:104E7000580400202C0000202DE9F843274EDDF8CF
:104E800020900024757D0DB1054606E077680D463B
:104E9000B91A1A463B1A491E5B1E306896F814C0B0
:104EA000DFF87C80521B871A58F82CC0F66900FB8B
:104EB000015006FB00C51B487F1EBFB2066846F4C2
:104EC00000060660006800F40000009016480668BE
:104ED00026F0010606604FF440360660022646635F
:104EE0000764C563591AF30303EB0242491C1143DB
:104EF0004164C0F83890016841F0010101605A0135
:104F000002E0641C944202D241688907F9D58168A5
:104F100041F002018160BDE8F883000058040020E0
:104F20002C0000203038024000B002402DE9FF473D
:104F300000F04AF904460126704DA0F586404FF472
:104F4000F07141F21809423844D03204A4F5E0432C
:104F50004FF44870843B4FD003218C274FF4806C72
:104F60004FF4B47A6E3357D0A4F5E0484FF4A06301
:104F7000B8F118085ED0A4F50048B8F117085CD065
:104F80004C450CD1C5E90030AF810A202882288128
:104F9000E8816882698102215046FFF72BFF58485B
:104FA0002A68594F0280696841800220E8615548AB
:104FB00038605248554BA8384FF00008C0E9003817
:104FC000C0F80880C0F80C804C453BD14FF08053AE
:104FD000036139E04FF48870C5E900102E816E81BD
:104FE0002820A8810820E88105212982820368827F
:104FF00004214FF49070D0E7C5E900012E816E8145
:105000002E20A8811720E881D220288216206882CD
:1050100003214FF4C670C0E74FF41670C5E900C015
:10502000142028816981AF81E881A02028820C208A
:105030006882B0E7C5E90030B1E74FF44070C5E9D8
:1050400000C0ACE7C0F810802C89631E43616B89F7
:10505000A3F1010CC0F818C0B5F80CC06444A4F169
:10506000010CC0F81CC0B5F80EC06344A3F1010CDC
:10507000C0F820C0A2F1010CA444C0F824C0A1F1E2
:10508000010C9C44C0F828C0B5F810C0624422440A
:10509000521EC2626A8A11441944491E016380F893
:1050A000368080F8358080F834801448A838FBF7C3
:1050B0001FFE07200621CDE90208CDE90081FF236C
:1050C00002220020396800F025F8A888002280B26A
:1050D00000902888114683B2104600F063F8002043
:1050E000FFF798FE0A4885F81480C0F8946204B06F
:1050F0004FF0FF30BDE8F047FFF76CBE58040020CA
:105100006C030020000000C02C000020006801405B
:10511000008040422DE9F0438DB0164614AA0024C9
:1051200092E88013114D009402942A6801926D68F0
:10513000CDE904634FEA0823CDE9067303954FEAEE
:1051400009230DF1240E08938EE8260002468DF8FF
:10515000324006488DF831408DF830C06946A83895
:10516000FBF79DFD0DB0BDE8F08300005804002062
:105170000B4B842202EBC0121868012901D021B127
:1051800007E0815841F0010102E0815821F001015E
:1051900081501868416A41F0010141627047000086
:1051A000B003002070B51E46044603460548049D22
:1051B000FBF796FE23462A463146BDE8704001487B
:1051C000FBF7B8BEB003002030B52A4887B00021F5
:1051D000026842F040020260026802F0400205925A
:1051E000026842F4807202600068234C00F4807010
:1051F00005904020CDE9000101200290032003909A
:1052000069462046FBF71AFC84201C4D0090694635
:105210002846FBF713FC40212046FBF7FDFC044623
:1052200004212846FBF7F8FC44EA40048021284684
:10523000FBF7F2FC44EA8000C0B2062817D2DFE890
:1052400000F003070A0D101344F2423007B030BDDE
:1052500047F28400FAE747F21600F7E747F2180032
:10526000F4E748F21600F1E741F21800EEE70020FB
:10527000ECE70000303802400018024000200240F5
:10528000F0B50B4E0B4F3446757D2368E269247DE3
:1052900057F8244025B103FB01004243A05AF0BD5A
:1052A0007568281A401E03FB00105043205AF0BDB9
:1052B000580400202C0000200149087570470000A8
:1052C00058040020F0B504688B88E568C5F30B45E9
:1052D0002B441D04882303EBC213E65806F47046E2
:1052E000E65004680F68E668C6F30B46761C3E4439
:1052F0002E43E65003688C89DD68C5F30A052C440B
:1053000025048C2404EBC2141E5906F470461E5169
:1053100003688F68DE68C6F30A06761C3E442E4397
:105320001E519423046803EBC213E55825F00705CA
:10533000E55005680C69EC5091F8313005681F02A2
:1053400091F832301C040B7E1E069C2303EBC21323
:1053500055F803C04FF0000C45F803C091F83050E9
:1053600034433D4325430468E5509823046803EB28
:10537000C213E55825F0FF05E55005684C69EC506F
:10538000A023046803EBC213E55840F20776B54347
:10539000E550D1E907452C430568EC50AC2304687F
:1053A00003EBC213E55844F803C005684C6AEC509F
:1053B0000B698BB3012B32D0042B32D0022B30D0AF
:1053C000032B2ED0072B2CD00123B024056804EB2F
:1053D000C2142E5906F0E0262E51D1E90065AD1B0E
:1053E0000E8D5D435E43ED1C45EA064305682B5177
:1053F000B423046803EBC213E5586FF30A05E550C4
:105400000468C96AE1500068842101EBC211425866
:1054100042F001024250F0BDFFE70423D5E7032329
:10542000D3E70223D1E7000007490128096806D025
:10543000002803D1886920F00100886170478869DD
:1054400040F00100F9E70000B0030020FEE77047DC
:105450000907090E002806DA00F00F0000F1E0202D
:1054600080F8141D704700F1E02080F800147047A8
:105470007047000000B5164887B014490022C0E903
:1054800000120121816008211023C0E90313402389
:1054900043614FF4C073C0E906320A0202624A0255
:1054A00042628A0282620220CDE900010621029155
:1054B000CDE903100590069069460548FCF750FABF
:1054C000034800F007F807B000BD0000400100A04D
:1054D0007C03002010B5002301221146184600F07D
:1054E00021F84FF4FA7000F02DFB00230122022175
:1054F000184600F017F8002308220321184600F090
:1055000011F84FF40C7301220421002000F00AF876
:10551000BDE8104040F2AB210148FCF7B1BA0000F1
:105520007C0300201FB5002410B1012802D002E046
:10553000102400E00824CDE90014CDE902234FF443
:10554000805269460348FCF7ACFA002800D00120DD
:1055500004B010BD7C0300207047000070B51E4CE5
:1055600092B00025266846F080562660246804F034
:1055700080541194194C266846F4404626602468ED
:105580000DF1240C04F4404411940124009401947E
:10559000022406948CE80D006605CDE90761684693
:1055A000FCF750F800B1FEE7FBF730FD00B1FEE775
:1055B0000CA90F2081E831004FF4A0500F904FF458
:1055C0008050109005210CA8FBF7B8FE002800D0F1
:1055D000FEE712B070BD000040380240007000408D
:1055E000FBF72ABB1048016841F4700101600F48C5
:1055F000016841F0010101600C4A0021083211608C
:1056000002680B4B1A400260031D0A4A1A600268C6
:1056100022F48022026005480C30016002495806DD
:10562000803908607047000088ED00E000380240D3
:10563000FFFFF6FE1030002410B50A4C2068C06849
:10564000C043C00709D1084800698047216800208D
:10565000486221686420C862E06021686FF0010040
:10566000086110BD7804002020010020F0B5026818
:10567000234D244E244FDFF894C0254B4FF0804E2D
:10568000A84209D0704507D0B04205D0B84203D037
:10569000604501D0984203D122F070044A68224349
:1056A000A8421BD0704519D0B04217D0B84215D0CF
:1056B000604513D0984211D0164CA0420ED0164C23
:1056C000A0420BD0154CA04208D0154CA04205D0EA
:1056D000144CA04202D0144CA04203D122F44074D6
:1056E000CA68224302608A68C2620A688262A8426B
:1056F00001D0984201D10969016301214161F0BDE6
:10570000000001400004004000080040000C004080
:1057100000040140004001400044014000480140B5
:1057200000180040001C004000200040F8B506466C
:1057300010480D460024016841F004010160006832
:10574000032200F00400009011461E20FBF72CFC01
:105750001E20FBF71DFC094A07481060C2E90154EE
:10576000C2E903641046FCF73BFABDE8F840034881
:10577000FCF752BA4038024000080040780400208C
:1057800010B590F83910222903D0322901D0022017
:1057900010BD8168B1F5805F11D0016900290168F1
:1057A0001FD0496801F07F03816A4A1C82620B7036
:1057B000C18D491E0904090CC18518D02FE002696A
:1057C000816A002A0268526805D0D2B20A80816AD2
:1057D000491C8162ECE7C2F308020A80816A891CD5
:1057E000F7E74A68816A4B1C83620A70E0E7016848
:1057F000CA6822F02002CA6090F83910322910D00D
:105800000168CA6822F48072CA6001684A6922F09D
:1058100001024A61012180F83910FCF762FB002087
:1058200010BD1221F7E700002DE9F04104460068A1
:105830000169E26821F440510A4302612068C168AD
:1058400049F20C6291432369A268E5691A436369CE
:105850002B431A430A43C2602068416921F4407215
:10586000A16911434161E06964263225B0F5004F1A
:10587000484A494920681DD0884201D0904269D1E8
:10588000FBF790FE00EBC00101EB00106168B04631
:105890008900B0FBF1F1B1FBF8F6FBF783FE00EBFA
:1058A000C00101EB001061688900B0FBF1F7FBF764
:1058B00079FE68E0884201D0904219D1FBF772FE70
:1058C00000EBC00101EB00106168B0464900B0FB7D
:1058D000F1F1B1FBF8F6FBF765FE00EBC00101EB5F
:1058E000001061684900B0FBF1F7FBF75BFE18E0C0
:1058F000FBF742FE00EBC00101EB00106168B0460F
:105900004900B0FBF1F1B1FBF8F6FBF735FE00EB17
:10591000C00101EB001061684900B0FBF1F7FBF733
:105920002BFE00EBC00101EB001061684900B0FBE9
:10593000F1F1B1FBF8F06FF01801484307EB80007C
:1059400005EB0011B1FBF8F0216866F31F108860C9
:10595000BDE8F081FBF710FE00EBC00101EB001089
:105960006168B0468900B0FBF1F1B1FBF8F6FBF7D6
:1059700003FE00EBC00101EB001061688900B0FB81
:10598000F1F7FBF7F9FD00EBC00101EB00106168D6
:105990008900CCE7001401400010014090F8391054
:1059A000122903D0322901D0022070478168B1F555
:1059B000805F016A0BD04A1C02620268097851605C
:1059C000C18C491E0904090CC1840ED017E0098856
:1059D0000268C1F30801516001690029016A02D01F
:1059E000491C0162ECE7891CFBE70168CA6822F0E8
:1059F0008002CA600068C16841F04001C1600020B7
:105A000070472DE9F0471D4690460F460446FBF7C8
:105A10000DF906465FEA08004FF000094FF0010853
:105A200008D030E0681C05D095B1FBF7FFF8801B6B
:105A3000A8420DD82068006837EA0000F2D127E0BC
:105A4000681C20D025B1FBF7F1F8801BA8421AD9B9
:105A50002068C16821F08001C1602068C16821F020
:105A60002001C1602068C16821F48071C160206894
:105A7000416921F00101416184F8398084F838904E
:105A80000320BDE8F0872068006837EA0000D7D01F
:105A90000020F6E738B5184800680068C043800663
:105AA00022D44FF47A73012269461348FCF7B4F903
:105AB000124A1088010417D441049DF800104FF0D9
:105AC000000304D50A290ED140F4004012E00D294C
:105AD0000ED0C0F30D04084D401CC83D80B22955BE
